{
  "contractName": "Voting",
  "abi": [
    {
      "inputs": [],
      "stateMutability": "nonpayable",
      "type": "constructor"
    },
    {
      "anonymous": false,
      "inputs": [
        {
          "indexed": true,
          "internalType": "uint256",
          "name": "candidateId",
          "type": "uint256"
        },
        {
          "indexed": false,
          "internalType": "string",
          "name": "name",
          "type": "string"
        }
      ],
      "name": "CandidateAdded",
      "type": "event"
    },
    {
      "anonymous": false,
      "inputs": [
        {
          "indexed": true,
          "internalType": "address",
          "name": "voter",
          "type": "address"
        },
        {
          "indexed": true,
          "internalType": "uint256",
          "name": "candidateId",
          "type": "uint256"
        }
      ],
      "name": "VotedEvent",
      "type": "event"
    },
    {
      "anonymous": false,
      "inputs": [],
      "name": "VotingStarted",
      "type": "event"
    },
    {
      "inputs": [],
      "name": "admin",
      "outputs": [
        {
          "internalType": "address",
          "name": "",
          "type": "address"
        }
      ],
      "stateMutability": "view",
      "type": "function",
      "constant": true
    },
    {
      "inputs": [
        {
          "internalType": "uint256",
          "name": "",
          "type": "uint256"
        }
      ],
      "name": "candidates",
      "outputs": [
        {
          "internalType": "uint256",
          "name": "id",
          "type": "uint256"
        },
        {
          "internalType": "string",
          "name": "name",
          "type": "string"
        },
        {
          "internalType": "uint256",
          "name": "voteCount",
          "type": "uint256"
        }
      ],
      "stateMutability": "view",
      "type": "function",
      "constant": true
    },
    {
      "inputs": [],
      "name": "candidatesCount",
      "outputs": [
        {
          "internalType": "uint256",
          "name": "",
          "type": "uint256"
        }
      ],
      "stateMutability": "view",
      "type": "function",
      "constant": true
    },
    {
      "inputs": [
        {
          "internalType": "address",
          "name": "",
          "type": "address"
        }
      ],
      "name": "voters",
      "outputs": [
        {
          "internalType": "bool",
          "name": "voted",
          "type": "bool"
        },
        {
          "internalType": "uint256",
          "name": "vote",
          "type": "uint256"
        }
      ],
      "stateMutability": "view",
      "type": "function",
      "constant": true
    },
    {
      "inputs": [],
      "name": "votingStarted",
      "outputs": [
        {
          "internalType": "bool",
          "name": "",
          "type": "bool"
        }
      ],
      "stateMutability": "view",
      "type": "function",
      "constant": true
    },
    {
      "inputs": [],
      "name": "startVoting",
      "outputs": [],
      "stateMutability": "nonpayable",
      "type": "function"
    },
    {
      "inputs": [
        {
          "internalType": "string",
          "name": "_name",
          "type": "string"
        }
      ],
      "name": "addCandidate",
      "outputs": [],
      "stateMutability": "nonpayable",
      "type": "function"
    },
    {
      "inputs": [
        {
          "internalType": "uint256",
          "name": "_candidateId",
          "type": "uint256"
        }
      ],
      "name": "vote",
      "outputs": [],
      "stateMutability": "nonpayable",
      "type": "function"
    },
    {
      "inputs": [
        {
          "internalType": "uint256",
          "name": "_candidateId",
          "type": "uint256"
        }
      ],
      "name": "getCandidateVotes",
      "outputs": [
        {
          "internalType": "uint256",
          "name": "",
          "type": "uint256"
        }
      ],
      "stateMutability": "view",
      "type": "function",
      "constant": true
    },
    {
      "inputs": [
        {
          "internalType": "uint256",
          "name": "_candidateId",
          "type": "uint256"
        }
      ],
      "name": "getCandidate",
      "outputs": [
        {
          "internalType": "string",
          "name": "",
          "type": "string"
        },
        {
          "internalType": "uint256",
          "name": "",
          "type": "uint256"
        }
      ],
      "stateMutability": "view",
      "type": "function",
      "constant": true
    },
    {
      "inputs": [
        {
          "internalType": "address",
          "name": "_voter",
          "type": "address"
        }
      ],
      "name": "hasVoted",
      "outputs": [
        {
          "internalType": "bool",
          "name": "",
          "type": "bool"
        }
      ],
      "stateMutability": "view",
      "type": "function",
      "constant": true
    }
  ],
  "bytecode": "0x60806040523480156200001157600080fd5b50600080546001600160a01b03191633179055604080518082019091526005815264416c69636560d81b60208201526200004b9062000083565b6040805180820190915260038152622137b160e91b6020820152620000709062000083565b6004805460ff1916600117905562000293565b6003805490600062000095836200026b565b90915550506040805160608101825260035480825260208083018581526000848601819052928352600180835294909220835181559151805193949293620000e593850192919091019062000132565b50604082015181600201559050506003547fe83b2a43e7e82d975c8a0a6d2f045153c869e111136a34d1889ab7b598e396a382604051620001279190620001d8565b60405180910390a250565b82805462000140906200022e565b90600052602060002090601f016020900481019282620001645760008555620001af565b82601f106200017f57805160ff1916838001178555620001af565b82800160010185558215620001af579182015b82811115620001af57825182559160200191906001019062000192565b50620001bd929150620001c1565b5090565b5b80821115620001bd5760008155600101620001c2565b6000602080835283518082850152825b818110156200020657858101830151858201604001528201620001e8565b81811115620002185783604083870101525b50601f01601f1916929092016040019392505050565b6002810460018216806200024357607f821691505b602082108114156200026557634e487b7160e01b600052602260045260246000fd5b50919050565b60006000198214156200028c57634e487b7160e01b81526011600452602481fd5b5060010190565b610aef80620002a36000396000f3fe608060405234801561001057600080fd5b50600436106100a95760003560e01c806335b8e8201161007157806335b8e8201461012b578063462e91ec1461014c57806383d948b71461015f578063866163c014610167578063a3ec138d1461017a578063f851a4401461019b576100a9565b80630121b93f146100ae57806309eef43e146100c35780631ec6b60a146100ec5780632d35a8a2146100f45780633477ee2e14610109575b600080fd5b6100c16100bc366004610802565b6101b0565b005b6100d66100d1366004610767565b6102c1565b6040516100e39190610879565b60405180910390f35b6100c16102df565b6100fc610364565b6040516100e39190610a25565b61011c610117366004610802565b61036a565b6040516100e393929190610a2e565b61013e610139366004610802565b610414565b6040516100e39291906108a7565b6100c161015a366004610795565b610519565b6100d66105a9565b6100fc610175366004610802565b6105b2565b61018d610188366004610767565b6105f7565b6040516100e3929190610884565b6101a3610616565b6040516100e39190610865565b60045460ff166101db5760405162461bcd60e51b81526004016101d2906108c9565b60405180910390fd5b3360009081526002602052604090205460ff161561020b5760405162461bcd60e51b81526004016101d2906109f5565b60008111801561021d57506003548111155b6102395760405162461bcd60e51b81526004016101d2906109c7565b6040805180820182526001808252602080830185815233600090815260028084528682209551865460ff191690151517865591519484019490945585845291905291812090910180549161028c83610a92565b9091555050604051819033907f0902475a854b82199b4f5d6b81327ec4c4ec077ce0356a106ddc2748c5285ed390600090a350565b6001600160a01b031660009081526002602052604090205460ff1690565b6000546001600160a01b031633146103095760405162461bcd60e51b81526004016101d290610985565b60045460ff161561032c5760405162461bcd60e51b81526004016101d290610900565b6004805460ff191660011790556040517f877e2548498f42b7975a186b94ef1d32c86d420b7b806dd2be2bea293b89590490600090a1565b60035481565b60016020819052600091825260409091208054918101805461038b90610a57565b80601f01602080910402602001604051908101604052809291908181526020018280546103b790610a57565b80156104045780601f106103d957610100808354040283529160200191610404565b820191906000526020600020905b8154815290600101906020018083116103e757829003601f168201915b5050505050908060020154905083565b60606000808311801561042957506003548311155b6104455760405162461bcd60e51b81526004016101d2906109c7565b600083815260016020818152604080842081516060810190925280548252928301805491939284019161047790610a57565b80601f01602080910402602001604051908101604052809291908181526020018280546104a390610a57565b80156104f05780601f106104c5576101008083540402835291602001916104f0565b820191906000526020600020905b8154815290600101906020018083116104d357829003601f168201915b505050505081526020016002820154815250509050806020015181604001519250925050915091565b6000546001600160a01b031633146105435760405162461bcd60e51b81526004016101d290610985565b60045460ff16156105665760405162461bcd60e51b81526004016101d290610937565b6105a582828080601f01602080910402602001604051908101604052809392919081815260200183838082843760009201919091525061062592505050565b5050565b60045460ff1681565b600080821180156105c557506003548211155b6105e15760405162461bcd60e51b81526004016101d2906109c7565b5060009081526001602052604090206002015490565b6002602052600090815260409020805460019091015460ff9091169082565b6000546001600160a01b031681565b6003805490600061063583610a92565b909155505060408051606081018252600354808252602080830185815260008486018190529283526001808352949092208351815591518051939492936106839385019291909101906106ce565b50604082015181600201559050506003547fe83b2a43e7e82d975c8a0a6d2f045153c869e111136a34d1889ab7b598e396a3826040516106c39190610894565b60405180910390a250565b8280546106da90610a57565b90600052602060002090601f0160209004810192826106fc5760008555610742565b82601f1061071557805160ff1916838001178555610742565b82800160010185558215610742579182015b82811115610742578251825591602001919060010190610727565b5061074e929150610752565b5090565b5b8082111561074e5760008155600101610753565b600060208284031215610778578081fd5b81356001600160a01b038116811461078e578182fd5b9392505050565b600080602083850312156107a7578081fd5b823567ffffffffffffffff808211156107be578283fd5b818501915085601f8301126107d1578283fd5b8135818111156107df578384fd5b8660208285010111156107f0578384fd5b60209290920196919550909350505050565b600060208284031215610813578081fd5b5035919050565b60008151808452815b8181101561083f57602081850181015186830182015201610823565b818111156108505782602083870101525b50601f01601f19169290920160200192915050565b6001600160a01b0391909116815260200190565b901515815260200190565b9115158252602082015260400190565b60006020825261078e602083018461081a565b6000604082526108ba604083018561081a565b90508260208301529392505050565b6020808252601a908201527f566f74696e6720686173206e6f74207374617274656420796574000000000000604082015260600190565b6020808252601a908201527f566f74696e672068617320616c72656164792073746172746564000000000000604082015260600190565b6020808252602e908201527f43616e6e6f74206164642063616e6469646174657320616674657220766f746960408201526d1b99c81a185cc81cdd185c9d195960921b606082015260800190565b60208082526022908201527f4f6e6c792061646d696e2063616e20706572666f726d2074686973206163746960408201526137b760f11b606082015260800190565b602080825260149082015273125b9d985b1a590818d85b991a59185d1948125160621b604082015260600190565b602080825260169082015275165bdd481a185d9948185b1c9958591e481d9bdd195960521b604082015260600190565b90815260200190565b600084825260606020830152610a47606083018561081a565b9050826040830152949350505050565b600281046001821680610a6b57607f821691505b60208210811415610a8c57634e487b7160e01b600052602260045260246000fd5b50919050565b6000600019821415610ab257634e487b7160e01b81526011600452602481fd5b506001019056fea2646970667358221220e0296f51e8cf93c3d9f3309fb07c76d521976ccd27ef39bf881b91d50986c97164736f6c63430008000033",
  "immutableReferences": {},
  "source": "// SPDX-License-Identifier: MIT\r\npragma solidity ^0.8.0;\r\n\r\ncontract Voting {\r\n    struct Candidate {\r\n        uint id;\r\n        string name;\r\n        uint voteCount;\r\n    }\r\n\r\n    struct Voter {\r\n        bool voted;\r\n        uint vote;\r\n    }\r\n\r\n    address public admin;\r\n    mapping(uint => Candidate) public candidates;\r\n    mapping(address => Voter) public voters;\r\n    uint public candidatesCount;\r\n    bool public votingStarted;\r\n\r\n    event VotedEvent(address indexed voter, uint indexed candidateId);\r\n    event CandidateAdded(uint indexed candidateId, string name);\r\n    event VotingStarted();\r\n\r\n    modifier onlyAdmin() {\r\n        require(msg.sender == admin, \"Only admin can perform this action\");\r\n        _;\r\n    }\r\n\r\n    constructor() {\r\n        admin = msg.sender;\r\n        _addCandidate(\"Alice\");\r\n        _addCandidate(\"Bob\");\r\n        votingStarted = true;\r\n    }\r\n\r\n    function startVoting() external onlyAdmin {\r\n        require(!votingStarted, \"Voting has already started\");\r\n        votingStarted = true;\r\n        emit VotingStarted();\r\n    }\r\n\r\n    function addCandidate(string calldata _name) external onlyAdmin {\r\n        require(!votingStarted, \"Cannot add candidates after voting has started\");\r\n        _addCandidate(_name);\r\n    }\r\n\r\n    function _addCandidate(string memory _name) internal {\r\n        candidatesCount++;\r\n        candidates[candidatesCount] = Candidate(candidatesCount, _name, 0);\r\n        emit CandidateAdded(candidatesCount, _name);\r\n    }\r\n\r\n    function vote(uint _candidateId) external {\r\n        require(votingStarted, \"Voting has not started yet\");\r\n        require(!voters[msg.sender].voted, \"You have already voted\");\r\n        require(_candidateId > 0 && _candidateId <= candidatesCount, \"Invalid candidate ID\");\r\n\r\n        voters[msg.sender] = Voter(true, _candidateId);\r\n        candidates[_candidateId].voteCount++;\r\n\r\n        emit VotedEvent(msg.sender, _candidateId);\r\n    }\r\n\r\n    function getCandidateVotes(uint _candidateId) external view returns (uint) {\r\n        require(_candidateId > 0 && _candidateId <= candidatesCount, \"Invalid candidate ID\");\r\n        return candidates[_candidateId].voteCount;\r\n    }\r\n\r\n    function getCandidate(uint _candidateId) external view returns (string memory, uint) {\r\n        require(_candidateId > 0 && _candidateId <= candidatesCount, \"Invalid candidate ID\");\r\n        Candidate memory c = candidates[_candidateId];\r\n        return (c.name, c.voteCount);\r\n    }\r\n\r\n    function hasVoted(address _voter) external view returns (bool) {\r\n        return voters[_voter].voted;\r\n    }\r\n}\r\n",
  "sourcePath": "D:\\New folder\\blockchain\\contracts\\Voting.sol",
  "compiler": {
    "name": "solc",
    "version": "0.8.0+commit.c7dfd78e.Emscripten.clang"
  },
  "schemaVersion": "3.4.16",
  "updatedAt": "2025-03-19T16:03:00.110Z",
  "networkType": "ethereum",
  "devdoc": {
    "kind": "dev",
    "methods": {},
    "version": 1
  },
  "userdoc": {
    "kind": "user",
    "methods": {},
    "version": 1
  }
}